:03000000020E6786
:0C0E6700787FE4F6D8FD758152020EAED3
:100FE3000A24303132333435363738390251000070
:100FCC00758901758CFC758A18D2A9D2AFD28C3078
:070FDC008DFDC28CC28D22C5
:03000B00020F7E63
:100F7E00C0E0C0D0E544B53319E543B53214E54CB5
:100F8E00B53D0FE54BB53C0A20B707753E01D2B310
:0E0F9E008005C2B3753E00C28DD0D0D0E032C7
:0E0FF4008F90C2A1C2A2D2A3120FCCC2A32220
:100FAC00F8E6FF120FBE7F20120FBE7F3A120FBE63
:020FBC007F2094
:0E0FBE008F90D2A1C2A2D2A3120FCCC2A32246
:100800007F387E00120FF47F0C120FF47F06120F58
:10081000F4754F077550E5753F0075400775410049
:10082000754201E4F51AF51B74FFF54BF54CF543E1
:10083000F544E4F532F533F53C753D01F53EF54DF3
:10084000F54EE5406401453F6030E5406403453FB7
:100850006028E5406405453F6020E5406407453F6A
:100860006018E5406408453F6010E540640A453F74
:100870006008E540640C453F700875410075421FF3
:10088000802BE5406402453F701DAE4FAF50FC7DAC
:1008900004120EF3ED4C7007F54175421D800E7584
:1008A000410075421C800675410075421EE54E45AB
:1008B0004D701EE51B451A7018054CE54C7002057D
:1008C0004BD3943BE54B648094804005E4F54BF5B5
:1008D0004CE54C454B701EE54E454D7018E51B45EB
:1008E0001A70120544E544700205436418454370CC
:1008F00004F543F544E5444543702FE54C454B7002
:1009000029E54E454D7023E51B451A701D0546E54A
:100910004670020545D39542E5416480F8E545649B
:1009200080984006754500754601E544454370379B
:10093000E54C454B7031E54E454D702BE546640165
:1009400045457023E51B451A701DC3E540940CE531
:100950003F64809480500A0540E540700A053F805E
:1009600006753F00754001E4F51AF51B30B7030228
:1009700009F4AE32AF33FC7D0A120EF38E168F17D8
:10098000AE32AF337C007D0A120EF38C188D19AE97
:100990003CAF3D7C007D0A120EF38E208F21AE3CD1
:1009A000AF3D7C007D0A120EF38C228D237F947E56
:1009B00000120FF47F41120FBE7F4C120FBE7F4119
:1009C000120FBE7F52120FBE7F4D120FB47424253A
:1009D00017F8E6FF120FBE74242519120FAC742409
:1009E0002521F8E6FF120FBE74242523F8E6FF1236
:1009F0000FBE80257F947E00120FF4750A00750BE0
:100A0000017F20120FBE050BE50B7002050AD3947F
:100A100014E50A6480948040E820B71A20A61730B5
:100A2000A5140533E533700205326418453270773A
:100A3000F532F533807120B72520A62220A51FD3DB
:100A4000E5339400E53264809480400AE533153341
:100A5000705515328051753200753317804920B7B3
:100A60002020A71D30A51A053DE53D7002053CD3A9
:100A7000943CE53C64809480402DE4F53CF53D8059
:100A80002620B72320A72020A51DD3E53D9400E50F
:100A90003C64809480400AE53D153D700A153C8019
:100AA00006753C00753D3CAE4FAF507C037DE812AF
:100AB0000EF38E348F35AE4FAF507C037DE8120EAF
:100AC000F38C478D48AE47AF487C007D64120EF32F
:100AD0008E368F37AE47AF487C007D64120EF38CA4
:100AE000498D4AAE49AF4A7C007D0A120EF38E381A
:100AF0008F39AE49AF4A7C007D0A120EF38C3A8DD5
:100B00003BAE3FAF407C007D0A120EF38E088F098A
:100B1000AE3FAF407C007D0A120EF38C0C8D0DAE03
:100B200045AF467C007D0A120EF38E0E8F0FAE4548
:100B3000AF467C007D0A120EF38C108D11AE43AFD0
:100B4000447C007D0A120EF38E128F13AE43AF4425
:100B50007C007D0A120EF38C148D15AE4BAF4C7CCD
:100B6000007D0A120EF38E1C8F1DAE4BAF4C7C0025
:100B70007D0A120EF38C1E8D1FAE4DAF4E7C007D94
:100B80000A120EF38E2E8F2FAE4DAF4E7C007D0AD3
:100B9000120EF38C308D317F807E00120FF47F4473
:100BA000120FBE7F41120FBE7F54120FBE7F45123F
:100BB0000FB47424250FF8E6FF120FBE742425111C
:100BC000F8E6FF120FB97F2D120FB974242509F82A
:100BD000E6FF120FBE7424250DF8E6FF120FB97F51
:100BE0002D120FB974242535F8E6FF120FBE7424B8
:100BF0002537F8E6FF120FBE74242539F8E6FF12F8
:100C00000FBE7424253BF8E6FF120FBE7FC0120F03
:100C1000F47F54120FBE7F49120FBE7F4D120FBEDC
:100C20007F45120FB474242513F8E6FF120FBE742B
:100C3000242515120FAC7424251DF8E6FF120FBEF3
:100C40007424251F120FAC7424252FF8E6FF120F11
:100C5000BE74242531F8E6FF120FBEE53E64017034
:100C600041AE4DAF4EFC7D02120EF3ED4C7FE170B4
:100C70001CFE120FF47F41120FBE7F4C120FBE7F7D
:100C800041120FBE7F52120FBE7F4D802A7E00128E
:100C90000FF47F20120FBE120FBE120FBE120FBE36
:100CA00080157FE17E00120FF47F20120FBE120F1D
:100CB000BE120FBE120FBE120FBEE4F551F5521256
:100CC0000FCC0552E55270020551C394E8E551641A
:100CD00080948340EA30B72920A62630A523054416
:100CE000E5447002054374FFF54DF54EE544641884
:100CF00045437064F543F54474FFF54DF54E020D20
:100D0000AC30B72520A62220A51FD3E5449400E5EA
:100D10004364809480400AE5441544706315438021
:100D20005F754300754417805730B72E20A72B30CE
:100D3000A528054CE54C7002054B74FFF54DF54EAA
:100D4000D3E54C943BE54B64809480400BE4F54B39
:100D5000F54C74FFF54DF54E805230B72C20A72985
:100D600020A526D3E54C9400E54B64809480400A8E
:100D7000E54C154C700A154B8006754B00754C3BC5
:100D800074FFF54DF54E020E4820B12330A5200525
:100D900046E54670020545D39542E5416480F8E595
:100DA000456480984006754500754601020E48204E
:100DB000B12220A51FD3E5469401E54564809480C7
:100DC000400AE5461546700A154580068541458569
:100DD0004246807420B22830A5257545007546012D
:100DE000C3E540940CE53F64809480500A0540E5DB
:100DF00040700A053F8006753F007540018049201C
:100E0000B22820A525754500754601D3E54094011B
:100E1000E53F64809480400AE5401540700A153F24
:100E20008006753F0075400C801E20B40D30A50A69
:100E30000550E5507002054F800E20B41120A50E1C
:100E4000E55015507002154F751A00751B01054EBF
:100E5000E54E7002054DD3943BE54D64809480507F
:070E60000302084202083200
:100E7300020800E493A3F8E493A34003F68001F28D
:100E830008DFF48029E493A3F85407240CC8C33380
:100E9300C4540F4420C8834004F456800146F6DF4F
:100EA300E4800B0102040810204080900FE3E47EED
:100EB300019360BCA3FF543F30E509541FFEE49344
:100EC300A360010ECF54C025E060A840B8E493A30B
:100ED300FAE493A3F8E493A3C8C582C8CAC583CA36
:100EE300F0A3C8C582C8CAC583CADFE9DEE780BEEE
:010FF30000FD
:100EF300C2D5EC30E709B2D5E4C39DFDE49CFCEE1A
:100F030030E715B2D5E4C39FFFE49EFE120F29C359
:100F1300E49DFDE49CFC8003120F2930D507C3E454
:060F23009FFFE49EFE2288
:100F2900BC000BBE0029EF8DF084FFADF022E4CCAC
:100F3900F875F008EF2FFFEE33FEEC33FCEE9DEC75
:100F4900984005FCEE9DFE0FD5F0E9E4CEFD22EDBB
:100F5900F8F5F0EE8420D21CFEADF075F008EF2F05
:100F6900FFED33FD4007985006D5F0F222C398FDF6
:050F79000FD5F0EA2293
:00000001FF
